:1000000000800020BD010000FD7C0000C97C0000D4
:10001000C97C0000C97C0000C97C0000C97C0000CC
:10002000C97C0000C97C0000C97C0000FD7C000088
:10003000FD7C0000C97C00002D870000E5870000E2
:10004000FD7C0000FD7C0000FD7C0000FD7C0000CC
:10005000FD7C0000FD7C0000FD7C0000FD7C0000BC
:10006000FD7C0000FD7C0000FD7C0000FD7C0000AC
:10007000FD7C0000FD7C0000FD7C0000FD7C00009C
:10008000FD7C0000FD7C0000FD7C0000FD7C00008C
:10009000FD7C0000FD7C0000FD7C0000FD7C00007C
:1000A000FD7C0000FD7C0000FD7C0000FD7C00006C
:1000B000FD7C0000FD7C0000FD7C0000FD7C00005C
:1000C000FD7C0000FD7C0000FD7C0000FD7C00004C
:1000D000FD7C0000FD7C0000FD7C0000FD7C00003C
:1000E000FD7C0000FD7C0000FD7C0000FD7C00002C
:1000F000FD7C0000497B0000FD7C0000D17D0000FC
:10010000FD7C000029720000FD7C0000FD7C0000E9
:10011000FD7C0000FD7C0000FD7C0000FD7C0000FB
:10012000FD7C0000FD7C0000FD7C0000FD7C0000EB
:10013000FD7C0000FD7C00005D630000FD7C000094
:10014000FD7C0000FD7C0000FD7C0000FD7C0000CB
:10015000FD8500001186000025860000398600001C
:10016000FD7C000089740000FD7C0000FD7C000027
:10017000FD7C0000FD7C0000FD7C0000FD7C00009B
:10018000FD7C0000FD7C0000FD7C0000FD7C00008B
:10019000FD7C0000FD7C0000FD7C0000FD7C00007B
:1001A000FD7C0000FD7C0000FD7C0000FD7C00006B
:1001B000FD7C0000FD7C0000F5870000574B4CF2F1
:1001C000205210B51A804DF628121A8000BF00BFC9
:1001D00007F098FD524B4FF010621A60514A9A6036
:1001E000514ADA60514A136813F4807301BF5049D1
:1001F0000B604FF4A85313604E4B1A78110748BF99
:100200001A784D4944BF42F008021A704B4B2A221B
:100210001A704B4A4B4B8B4277D34B4B4B4A0021C6
:10022000934277D34A4A4B4C0023114654F823009B
:1002300042F8230001336F2BF8D1474B474A802007
:1002400003F8010B9342FBD1454B1960454B8A22C1
:100250001A70A3F5805324225A70A0221A709A793A
:100260009207FCD59A79D406FCD43F4B19469A796B
:1002700002F00C02082AFAD105221A7143225A719F
:100280008B799806FCD5384B9A795106FCD5374ABC
:100290004FF0817111600521516020221A70324A9D
:1002A000937903F00C030C2BFAD1314B314A1A60CD
:1002B000314B324A1A6000225A60072243F8042C5C
:1002C0002F4AC3F80C2D62B607F0A2FE184B1B682C
:1002D000DA0705D52B4807F0FBFD2B4B2B4A1A609C
:1002E0002B4B1B785B0609D5274C284B22689A427A
:1002F00004D1244807F0ECFD002323600DF020FB1F
:1003000007F006FD03F07EFEFEE752F8040F43F807
:10031000040B80E743F8041B82E700BF0E20054072
:1003200030800440823F04000100002B10D00340C5
:1003300014D0034002D007405888FF1F00E0074058
:10034000A0E100001C87FF1F5888FF1FB897FF1F00
:100350000082FF1F0000000000E400E05FE400E016
:1003600008ED00E000500640004006404480044094
:1003700004800440C010050014E000E03F190100B3
:100380000000202000DD68501CE00340A5C3945A03
:1003900000F00740FFFFFFFFFFFFFFFFFFFFFFFF32
:1003A000FFFFFFFFFFFFFFFFFFFFFFFFFFFFFFFF5D
:1003B000FFFFFFFFFFFFFFFFFFFFFFFFFFFFFFFF4D
:1003C000FFFFFFFFFFFFFFFFFFFFFFFFFFFFFFFF3D
:1003D000FFFFFFFFFFFFFFFFFFFFFFFFFFFFFFFF2D
:1003E000FFFFFFFFFFFFFFFFFFFFFFFFFFFFFFFF1D
:1003F000FFFFFFFFFFFFFFFFFFFFFFFFFFFFFFFF0D
:10040000FFFFFFFFFFFFFFFFFFFFFFFFDEF9FFFF23
:1004100008B5034B1BB103490348AFF3008008BD87
:10042000000000005888FF1FA4E100002DE9F74FED
:100430009A46109B019383469146DDE90C78DDE9ED
:100440000E56119C03F000FE242840F38980002002
:1004500003F00EFE012003F00BFEBBF80400000ABF
:1004600003F006FE9BF8040003F002FE4FEA1A6058
:1004700003F0FEFDCAF3074003F0FAFDCAF30720BC
:1004800003F0F6FD5FFA8AF003F0F2FD4FEA19601F
:1004900003F0EEFDC9F3074003F0EAFDC9F30720BE
:1004A00003F0E6FD5FFA89F003F0E2FD4FEA186021
:1004B00003F0DEFDC8F3074003F0DAFDC8F30720C0
:1004C00003F0D6FD5FFA88F003F0D2FD380E03F09A
:1004D000CFFDC7F3074003F0CBFDC7F3072003F0C0
:1004E000C7FDF8B203F0C4FD300E03F0C1FDC6F342
:1004F000074003F0BDFDC6F3072003F0B9FDF0B2DD
:1005000003F0B6FD280E03F0B3FDC5F3074003F07A
:10051000AFFDC5F3072003F0ABFDE8B203F0A8FD83
:10052000200E03F0A5FDC4F3074003F0A1FDC4F3C2
:10053000072003F09DFDE0B203F09AFD019C200E20
:1005400003F096FDC4F3074003F092FDC4F30720C7
:1005500003F08EFDE0B203B0BDE8F04F03F088BDBC
:1005600003B0BDE8F08F38B504460D4603F06CFDCE
:10057000052811DD002003F07BFD022003F078FD4B
:100580002089000A03F074FD207A03F071FD2846EB
:10059000BDE8384003F06CBD38BD10B5044603F02B
:1005A00053FD04280EDD002003F062FD032003F05C
:1005B0005FFD6089000A03F05BFDA07ABDE8104092
:1005C00003F056BD10BD10B5044603F03DFD0428F0
:1005D0000EDD002003F04CFD042003F049FD60898E
:1005E000000A03F045FDA07ABDE8104003F040BDCD
:1005F00010BD10B5044603F027FD04280EDD0020D1
:1006000003F036FD052003F033FD6088000A03F097
:100610002FFDA078BDE8104003F02ABD10BD10B535
:10062000044603F011FD04280EDD002003F020FD38
:10063000062003F01DFDA088000A03F019FD2079B3
:10064000BDE8104003F014BD10BD10B5044603F022
:10065000FBFC04280EDD002003F00AFD072003F058
:1006600007FDA088000A03F003FD2079BDE81040D3
:1006700003F0FEBC10BD2DE9F843814688461746BD
:100680001E46DDE9085403F0DFFC182858DD002081
:1006900003F0EEFC082003F0EBFCB9F80400000ABC
:1006A00003F0E6FC99F8040003F0E2FC4FEA18605E
:1006B00003F0DEFCC8F3074003F0DAFCC8F30720C0
:1006C00003F0D6FC5FFA88F003F0D2FC380E03F09A
:1006D000CFFCC7F3074003F0CBFCC7F3072003F0C0
:1006E000C7FCF8B203F0C4FC300E03F0C1FCC6F343
:1006F000074003F0BDFCC6F3072003F0B9FCF0B2DD
:1007000003F0B6FC280E03F0B3FCC5F3074003F07A
:10071000AFFCC5F3072003F0ABFCE8B203F0A8FC84
:10072000200E03F0A5FCC4F3074003F0A1FCC4F3C2
:10073000072003F09DFCE0B2BDE8F84303F098BC4D
:10074000BDE8F88338B504460D4603F07DFC052866
:1007500011DD002003F08CFC022003F089FCE0880E
:10076000000A03F085FCA07903F082FC2846BDE86E
:10077000384003F07DBC38BD38B504460D4603F063
:1007800063FC052811DD002003F072FC092003F052
:100790006FFC6088000A03F06BFCA07803F068FC33
:1007A0002846BDE8384003F063BC38BD10B50446A8
:1007B00003F04AFC04280EDD002003F059FC0A2057
:1007C00003F056FC6088000A03F052FCA078BDE8F4
:1007D000104003F04DBC10BD70B504460E461546E2
:1007E00003F032FC062814DD002003F041FC0B204E
:1007F00003F03EFCA088000A03F03AFC207903F0E5
:1008000037FC304603F034FC2846BDE8704003F066
:100810002FBC70BD2DE9F04F93B09A46209B0193F9
:10082000DDE921430293239B0393249B0493259B9F
:100830000593269B0693279B0793289B0893299B48
:1008400009932A9B0A932B9B0B932C9B0C932D9B18
:100850000D93DDE91C78DDE91E562E9B0E932F9B30
:100860000F93309B1093319B11938346914603F075
:10087000EBFB642840F37981002003F0F9FB0C20A6
:1008800003F0F6FBBBF80400000A03F0F1FB9BF851
:10089000040003F0EDFB4FEA1A6003F0E9FBCAF332
:1008A000074003F0E5FBCAF3072003F0E1FB5FFA22
:1008B0008AF003F0DDFB4FEA196003F0D9FBC9F3BE
:1008C000074003F0D5FBC9F3072003F0D1FB5FFA23
:1008D00089F003F0CDFB4FEA186003F0C9FBC8F3C1
:1008E000074003F0C5FBC8F3072003F0C1FB5FFA24
:1008F00088F003F0BDFB380E03F0BAFBC7F30740E6
:1009000003F0B6FBC7F3072003F0B2FBF8B203F025
:10091000AFFB300E03F0ACFBC6F3074003F0A8FBBF
:10092000C6F3072003F0A4FBF0B203F0A1FB280EEE
:1009300003F09EFBC5F3074003F09AFBC5F30720C5
:1009400003F096FBE8B203F093FB200E03F090FB5C
:10095000C4F3074003F08CFBC4F3072003F088FBCB
:10096000E0B203F085FB019C200E03F081FBC4F391
:10097000074003F07DFBC4F3072003F079FBE0B2EE
:1009800003F076FB039C200E03F072FBC4F30740D8
:1009900003F06EFBC4F3072003F06AFBE0B203F040
:1009A00067FB029C200E03F063FBC4F3074003F0D7
:1009B0005FFBC4F3072003F05BFBE0B203F058FBDE
:1009C000059C200E03F054FBC4F3074003F050FBDA
:1009D000C4F3072003F04CFBE0B203F049FB049C96
:1009E000200E03F045FBC4F3074003F041FBC4F3C2
:1009F000072003F03DFBE0B203F03AFB079C200E1A
:100A000003F036FBC4F3074003F032FBC4F30720C6
:100A100003F02EFBE0B203F02BFB069C200E03F04C
:100A200027FBC4F3074003F023FBC4F3072003F0C4
:100A30001FFBE0B203F01CFB099C200E03F018FB27
:100A4000C4F3074003F014FBC4F3072003F010FBCA
:100A5000E0B203F00DFB089C200E03F009FBC4F389
:100A6000074003F005FBC4F3072003F001FBE0B2ED
:100A700003F0FEFA0B9C200E03F0FAFAC4F30740D1
:100A800003F0F6FAC4F3072003F0F2FAE0B203F041
:100A9000EFFA0A9C200E03F0EBFAC4F3074003F0D0
:100AA000E7FAC4F3072003F0E3FAE0B203F0E0FA58
:100AB0000D9C200E03F0DCFAC4F3074003F0D8FAD3
:100AC000C4F3072003F0D4FAE0B203F0D1FA0C9C8F
:100AD000200E03F0CDFAC4F3074003F0C9FAC4F3C3
:100AE000072003F0C5FAE0B203F0C2FA0F9C200E13
:100AF00003F0BEFAC4F3074003F0BAFAC4F30720C8
:100B000003F0B6FAE0B203F0B3FA0E9C200E03F045
:100B1000AFFAC4F3074003F0ABFAC4F3072003F0C5
:100B2000A7FAE0B203F0A4FA119C200E03F0A0FA99
:100B3000C4F3074003F09CFAC4F3072003F098FACB
:100B4000E0B203F095FA109C200E03F091FAC4F382
:100B5000074003F08DFAC4F3072003F089FAE0B2EE
:100B600013B0BDE8F04F03F083BA13B0BDE8F08FC7
:100B700010B5044603F068FA04280EDD002003F0E7
:100B800077FA0D2003F074FAE088000A03F070FA97
:100B9000A079BDE8104003F06BBA10BD10B5044653
:100BA00003F052FA04280EDD002003F061FA0E2053
:100BB00003F05EFAE088000A03F05AFAA079BDE873
:100BC000104003F055BA10BD10B5044603F03CFACE
:100BD00004280EDD002003F04BFA0F2003F048FA42
:100BE0002089000A03F044FA207ABDE8104003F09F
:100BF0003FBA10BD38B504460D4603F025FA052866
:100C000011DD002003F034FA102003F031FA60887F
:100C1000000A03F02DFAA07803F02AFA2846BDE86E
:100C2000384003F025BA38BD2DE9F04F93B09A460D
:100C3000209B0193DDE921430293239B0393249B93
:100C40000493259B0593269B0693279B0793289B3C
:100C50000893299B09932A9B0A932B9B0B932C9B0C
:100C60000C932D9B0D93DDE91C78DDE91E562E9B20
:100C70000E932F9B0F93309B1093319B11938346C0
:100C8000914603F0E1F9642840F37981002003F0F4
:100C9000EFF9112003F0ECF9BBF80200000A03F0B1
:100CA000E7F99BF8020003F0E3F94FEA1A6003F05A
:100CB000DFF9CAF3074003F0DBF9CAF3072003F0BA
:100CC000D7F95FFA8AF003F0D3F94FEA196003F01D
:100CD000CFF9C9F3074003F0CBF9C9F3072003F0BC
:100CE000C7F95FFA89F003F0C3F94FEA186003F01F
:100CF000BFF9C8F3074003F0BBF9C8F3072003F0BE
:100D0000B7F95FFA88F003F0B3F9380E03F0B0F9E1
:100D1000C7F3074003F0ACF9C7F3072003F0A8F9C5
:100D2000F8B203F0A5F9300E03F0A2F9C6F30740BC
:100D300003F09EF9C6F3072003F09AF9F0B203F02E
:100D400097F9280E03F094F9C5F3074003F090F9E2
:100D5000C5F3072003F08CF9E8B203F089F9200EFF
:100D600003F086F9C4F3074003F082F9C4F30720C7
:100D700003F07EF9E0B203F07BF9019C200E03F052
:100D800077F9C4F3074003F073F9C4F3072003F0C5
:100D90006FF9E0B203F06CF9039C200E03F068F9E0
:100DA000C4F3074003F064F9C4F3072003F060F9CB
:100DB000E0B203F05DF9029C200E03F059F9C4F390
:100DC000074003F055F9C4F3072003F051F9E0B2EE
:100DD00003F04EF9059C200E03F04AF9C4F30740D6
:100DE00003F046F9C4F3072003F042F9E0B203F040
:100DF0003FF9049C200E03F03BF9C4F3074003F0D5
:100E000037F9C4F3072003F033F9E0B203F030F907
:100E1000079C200E03F02CF9C4F3074003F028F9D7
:100E2000C4F3072003F024F9E0B203F021F9069C93
:100E3000200E03F01DF9C4F3074003F019F9C4F3C1
:100E4000072003F015F9E0B203F012F9099C200E17
:100E500003F00EF9C4F3074003F00AF9C4F30720C6
:100E600003F006F9E0B203F003F9089C200E03F04A
:100E7000FFF8C4F3074003F0FBF8C4F3072003F0C6
:100E8000F7F8E0B203F0F4F80B9C200E03F0F0F852
:100E9000C4F3074003F0ECF8C4F3072003F0E8F8CC
:100EA000E0B203F0E5F80A9C200E03F0E1F8C4F389
:100EB000074003F0DDF8C4F3072003F0D9F8E0B2EF
:100EC00003F0D6F80D9C200E03F0D2F8C4F30740CF
:100ED00003F0CEF8C4F3072003F0CAF8E0B203F041
:100EE000C7F80C9C200E03F0C3F8C4F3074003F0CE
:100EF000BFF8C4F3072003F0BBF8E0B203F0B8F882
:100F00000F9C200E03F0B4F8C4F3074003F0B0F8D0
:100F1000C4F3072003F0ACF8E0B203F0A9F80E9C8C
:100F2000200E03F0A5F8C4F3074003F0A1F8C4F3C2
:100F3000072003F09DF8E0B203F09AF8119C200E10
:100F400003F096F8C4F3074003F092F8C4F30720C7
:100F500003F08EF8E0B203F08BF8109C200E03F043
:100F600087F8C4F3074003F083F8C4F3072003F0C5
:100F70007FF8E0B213B0BDE8F04F03F079B813B0DA
:100F8000BDE8F08F10B5044603F05EF804280EDDCE
:100F9000002003F06DF8122003F06AF8A088000A20
:100FA00003F066F82079BDE8104003F061B810BD89
:100FB00010B5044603F048F804280EDD002003F0C5
:100FC00057F8132003F054F8A088000A03F050F8F3
:100FD0002079BDE8104003F04BB810BD2DE9F74F64
:100FE0009A46109B019383469146DDE90C78DDE932
:100FF0000E56119C03F028F8242840F38980002025
:1010000003F036F8142003F033F8BBF80200000AAE
:1010100003F02EF89BF8020003F02AF84FEA1A605A
:1010200003F026F8CAF3074003F022F8CAF30720BA
:1010300003F01EF85FFA8AF003F01AF84FEA19601D
:1010400003F016F8C9F3074003F012F8C9F30720BC
:1010500003F00EF85FFA89F003F00AF84FEA18601F
:1010600003F006F8C8F3074003F002F8C8F30720BE
:1010700002F0FEFF5FFA88F002F0FAFF380E02F08D
:10108000F7FFC7F3074002F0F3FFC7F3072002F0B2
:10109000EFFFF8B202F0ECFF300E02F0E9FFC6F30A
:1010A000074002F0E5FFC6F3072002F0E1FFF0B2CF
:1010B00002F0DEFF280E02F0DBFFC5F3074002F06E
:1010C000D7FFC5F3072002F0D3FFE8B202F0D0FF4C
:1010D000200E02F0CDFFC4F3074002F0C9FFC4F3B5
:1010E000072002F0C5FFE0B202F0C2FF019C200E13
:1010F00002F0BEFFC4F3074002F0BAFFC4F30720BA
:1011000002F0B6FFE0B203B0BDE8F04F02F0B0BFAE
:1011100003B0BDE8F08F38B504460D4602F094FFE9
:10112000052811DD002002F0A3FF022002F0A0FF3D
:10113000A088000A02F09CFF207902F099FF28465F
:10114000BDE8384002F094BF38BD10B5044602F047
:101150007BFF04280EDD002002F08AFF152002F03C
:1011600087FFA088000A02F083FF2079BDE81040C5
:1011700002F07EBF10BD10B5044602F065FF0428E2
:101180000EDD002002F074FF162002F071FFE088EF
:10119000000A02F06DFFA079BDE8104002F068BFC0
:1011A00010BD10B5044602F04FFF04280EDD0020EC
:1011B00002F05EFF172002F05BFFE088000A02F0F9
:1011C00057FFA079BDE8104002F052BF10BD10B526
:1011D000044602F039FF04280EDD002002F048FF2B
:1011E000182002F045FFE088000A02F041FFA079D4
:1011F000BDE8104002F03CBF10BD10B5044602F03F
:1012000023FF04280EDD002002F032FF192002F037
:101210002FFF6088000A02F02BFFA078BDE8104085
:1012200002F026BF10BD10B5044602F00DFF0428E1
:101230000EDD002002F01CFF1A2002F019FF60886A
:10124000000A02F015FFA078BDE8104002F010BFC0
:1012500010BD10B5044602F0F7FE04280EDD002094
:1012600002F006FF1B2002F003FF6088000A02F074
:10127000FFFEA078BDE8104002F0FABE10BD38B500
:1012800004460D4602F0E0FE052811DD002002F0C4
:10129000EFFE022002F0ECFEA088000A02F0E8FE59
:1012A000207902F0E5FE2846BDE8384002F0E0BEB5
:1012B00038BD10B5044602F0C7FE04280EDD00203C
:1012C00002F0D6FE1C2002F0D3FEE088000A02F0F5
:1012D000CFFEA079BDE8104002F0CABE10BD10B527
:1012E000044602F0B1FE04280EDD002002F0C0FE2C
:1012F0001D2002F0BDFEE088000A02F0B9FEA079D0
:10130000BDE8104002F0B4BE10BD10B5044602F0B6
:101310009BFE04280EDD002002F0AAFE1E2002F033
:10132000A7FEE088000A02F0A3FEA079BDE8104005
:1013300002F09EBE10BD10B5044602F085FE0428E2
:101340000EDD002002F094FE1F2002F091FE608866
:10135000000A02F08DFEA078BDE8104002F088BEC1
:1013600010BD10B5044602F06FFE04280EDD00200B
:1013700002F07EFE202002F07BFE6088000A02F070
:1013800077FEA078BDE8104002F072BE10BD10B527
:10139000044602F059FE04280EDD002002F068FE2B
:1013A000212002F065FEA088000A02F061FE20798B
:1013B000BDE8104002F05CBE10BD70B506460D469B
:1013C000144602F041FE0C282ADD002002F050FEF7
:1013D000222002F04DFE7088000A02F049FEB0782B
:1013E00002F046FE280E02F043FEC5F3074002F06D
:1013F0003FFEC5F3072002F03BFEE8B202F038FEE4
:10140000200E02F035FEC4F3074002F031FEC4F3B3
:10141000072002F02DFEE0B2BDE8704002F028BEC9
:1014200070BD10B5044602F00FFE04280EDD00204A
:1014300002F01EFE232002F01BFEA088000A02F02C
:1014400017FE2079BDE8104002F012BE10BD70B545
:1014500006460D46144602F0F7FD0C282ADD002052
:1014600002F006FE242002F003FEF088000A02F0DB
:10147000FFFDB07902F0FCFD280E02F0F9FDC5F386
:10148000074002F0F5FDC5F3072002F0F1FDE8B2D8
:1014900002F0EEFD200E02F0EBFDC4F3074002F077
:1014A000E7FDC4F3072002F0E3FDE0B2BDE87040C1
:1014B00002F0DEBD70BD2DE9F04F93B09A46209B3F
:1014C0000193DDE921430293239B0393249B04931F
:1014D000259B0593269B0693279B0793289B0893A0
:1014E000299B09932A9B0A932B9B0B932C9B0C9370
:1014F0002D9B0D93DDE91C78DDE91E562E9B0E9386
:101500002F9B0F93309B1093319B119383469146F1
:1015100002F09AFD642840F37981002002F0A8FDD2
:10152000252002F0A5FDBBF80200000A02F0A0FD94
:101530009BF8020002F09CFD4FEA1A6002F098FD51
:10154000CAF3074002F094FDCAF3072002F090FDB1
:101550005FFA8AF002F08CFD4FEA196002F088FD14
:10156000C9F3074002F084FDC9F3072002F080FDB3
:101570005FFA89F002F07CFD4FEA186002F078FD16
:10158000C8F3074002F074FDC8F3072002F070FDB5
:101590005FFA88F002F06CFD380E02F069FDC7F3C7
:1015A000074002F065FDC7F3072002F061FDF8B2C5
:1015B00002F05EFD300E02F05BFDC6F3074002F064
:1015C00057FDC6F3072002F053FDF0B202F050FDC4
:1015D000280E02F04DFDC5F3074002F049FDC5F3AA
:1015E000072002F045FDE8B202F042FD200E02F0B5
:1015F0003FFDC4F3074002F03BFDC4F3072002F0B7
:1016000037FDE0B202F034FD019C200E02F030FD07
:10161000C4F3074002F02CFDC4F3072002F028FDBC
:10162000E0B202F025FD039C200E02F021FDC4F380
:10163000074002F01DFDC4F3072002F019FDE0B2DF
:1016400002F016FD029C200E02F012FDC4F30740CA
:1016500002F00EFDC4F3072002F00AFDE0B202F032
:1016600007FD059C200E02F003FDC4F3074002F0C5
:10167000FFFCC4F3072002F0FBFCE0B202F0F8FC30
:10168000049C200E02F0F4FCC4F3074002F0F0FCCE
:10169000C4F3072002F0ECFCE0B202F0E9FC079C86
:1016A000200E02F0E5FCC4F3074002F0E1FCC4F3B5
:1016B000072002F0DDFCE0B202F0DAFC069C200E0E
:1016C00002F0D6FCC4F3074002F0D2FCC4F30720BA
:1016D00002F0CEFCE0B202F0CBFC099C200E02F03E
:1016E000C7FCC4F3074002F0C3FCC4F3072002F0B8
:1016F000BFFCE0B202F0BCFC089C200E02F0B8FC7B
:10170000C4F3074002F0B4FCC4F3072002F0B0FCBD
:10171000E0B202F0ADFC0B9C200E02F0A9FCC4F379
:10172000074002F0A5FCC4F3072002F0A1FCE0B2E0
:1017300002F09EFC0A9C200E02F09AFCC4F30740C3
:1017400002F096FCC4F3072002F092FCE0B202F033
:101750008FFC0D9C200E02F08BFCC4F3074002F0BE
:1017600087FCC4F3072002F083FCE0B202F080FCA7
:101770000C9C200E02F07CFCC4F3074002F078FCC5
:10178000C4F3072002F074FCE0B202F071FC0F9C7D
:10179000200E02F06DFCC4F3074002F069FCC4F3B4
:1017A000072002F065FCE0B202F062FC0E9C200E05
:1017B00002F05EFCC4F3074002F05AFCC4F30720B9
:1017C00002F056FCE0B202F053FC119C200E02F035
:1017D0004FFCC4F3074002F04BFCC4F3072002F0B7
:1017E00047FCE0B202F044FC109C200E02F040FCEA
:1017F000C4F3074002F03CFCC4F3072002F038FCBD
:10180000E0B213B0BDE8F04F02F032BC13B0BDE857
:10181000F08F10B5044602F017FC04280EDD0020FE
:1018200002F026FC262002F023FCA088000A02F029
:101830001FFC2079BDE8104002F01ABC10BD2DE954
:10184000F74F9A46109B019383469146DDE90C7849
:10185000DDE90E56119C02F0F7FB242840F3898045
:10186000002002F005FC272002F002FCBBF8060075
:10187000000A02F0FDFB9BF8060002F0F9FB4FEABC
:101880001A6002F0F5FBCAF3074002F0F1FBCAF35D
:10189000072002F0EDFB5FFA8AF002F0E9FB4FEA65
:1018A000196002F0E5FBC9F3074002F0E1FBC9F360
:1018B000072002F0DDFB5FFA89F002F0D9FB4FEA66
:1018C000186002F0D5FBC8F3074002F0D1FBC8F363
:1018D000072002F0CDFB5FFA88F002F0C9FB380E5A
:1018E00002F0C6FBC7F3074002F0C2FBC7F30720B4
:1018F00002F0BEFBF8B202F0BBFB300E02F0B8FB08
:10190000C6F3074002F0B4FBC6F3072002F0B0FBB9
:10191000F0B202F0ADFB280E02F0AAFBC5F30740BF
:1019200002F0A6FBC5F3072002F0A2FBE8B202F02A
:101930009FFB200E02F09CFBC4F3074002F098FBD3
:10194000C4F3072002F094FBE0B202F091FB019C8B
:10195000200E02F08DFBC4F3074002F089FBC4F3B4
:10196000072002F085FBE0B203B0BDE8F04F02F0C3
:101970007FBB03B0BDE8F08F10B5044602F064FBF6
:1019800004280EDD002002F073FB282002F070FB1B
:101990002089000A02F06CFB207ABDE8104002F0BA
:1019A00067BB10BD10B5044602F04EFB04280EDDE7
:1019B000002002F05DFB292002F05AFB2089000A7A
:1019C00002F056FB207ABDE8104002F051BB10BD7A
:1019D00010B5044602F038FB04280EDD002002F0AA
:1019E00047FB2A2002F044FB6089000A02F040FB1A
:1019F000A07ABDE8104002F03BBB10BD10B5044614
:101A000002F022FB04280EDD002002F031FB2B2027
:101A100002F02EFBA089000A02F02AFB207BBDE821
:101A2000104002F025BB10BD2DE9F74F9A46109BE0
:101A3000019383469146DDE90C78DDE90E56119C51
:101A400002F002FB242840F38980002002F010FB02
:101A50002C2002F00DFBBBF80C00000A02F008FB82
:101A60009BF80C0002F004FB4FEA1A6002F000FB46
:101A7000CAF3074002F0FCFACAF3072002F0F8FAB2
:101A80005FFA8AF002F0F4FA4FEA196002F0F0FA15
:101A9000C9F3074002F0ECFAC9F3072002F0E8FAB4
:101AA0005FFA89F002F0E4FA4FEA186002F0E0FA17
:101AB000C8F3074002F0DCFAC8F3072002F0D8FAB6
:101AC0005FFA88F002F0D4FA380E02F0D1FAC7F3C8
:101AD000074002F0CDFAC7F3072002F0C9FAF8B2C6
:101AE00002F0C6FA300E02F0C3FAC6F3074002F065
:101AF000BFFAC6F3072002F0BBFAF0B202F0B8FA60
:101B0000280E02F0B5FAC5F3074002F0B1FAC5F3AA
:101B1000072002F0ADFAE8B202F0AAFA200E02F0B5
:101B2000A7FAC4F3074002F0A3FAC4F3072002F0B7
:101B30009FFAE0B202F09CFA019C200E02F098FAA3
:101B4000C4F3074002F094FAC4F3072002F090FABD
:101B5000E0B203B0BDE8F04F02F08ABA03B0BDE8CE
:101B6000F08F10B5044602F06FFA04280EDD002055
:101B700002F07EFA2D2002F07BFAA089000A02F022
:101B800077FA207BBDE8104002F072BA10BD2DE953
:101B9000F04F93B09A46209B0193DDE921430293D5
:101BA000239B0393249B0493259B0593269B0693D9
:101BB000279B0793289B0893299B09932A9B0A93A9
:101BC0002B9B0B932C9B0C932D9B0D93DDE91C7889
:101BD000DDE91E562E9B0E932F9B0F93309B109387
:101BE000319B11938346914602F02EFA642840F30C
:101BF0007981002002F03CFA2E2002F039FABBF87D
:101C00000C00000A02F034FA9BF80C0002F030FAE3
:101C10004FEA1A6002F02CFACAF3074002F028FAE1
:101C2000CAF3072002F024FA5FFA8AF002F020FAE1
:101C30004FEA196002F01CFAC9F3074002F018FAE3
:101C4000C9F3072002F014FA5FFA89F002F010FAE3
:101C50004FEA186002F00CFAC8F3074002F008FAE5
:101C6000C8F3072002F004FA5FFA88F002F000FAE5
:101C7000380E02F0FDF9C7F3074002F0F9F9C7F397
:101C8000072002F0F5F9F8B202F0F2F9300E02F096
:101C9000EFF9C6F3074002F0EBF9C6F3072002F0B4
:101CA000E7F9F0B202F0E4F9280E02F0E1F9C5F329
:101CB000074002F0DDF9C5F3072002F0D9F9E8B2D8
:101CC00002F0D6F9200E02F0D3F9C4F3074002F077
:101CD000CFF9C4F3072002F0CBF9E0B202F0C8F963
:101CE000019C200E02F0C4F9C4F3074002F0C0F9D1
:101CF000C4F3072002F0BCF9E0B202F0B9F9039C8A
:101D0000200E02F0B5F9C4F3074002F0B1F9C4F3B4
:101D1000072002F0ADF9E0B202F0AAF9029C200E11
:101D200002F0A6F9C4F3074002F0A2F9C4F30720B9
:101D300002F09EF9E0B202F09BF9059C200E02F041
:101D400097F9C4F3074002F093F9C4F3072002F0B7
:101D50008FF9E0B202F08CF9049C200E02F088F9B1
:101D6000C4F3074002F084F9C4F3072002F080F9BD
:101D7000E0B202F07DF9079C200E02F079F9C4F37D
:101D8000074002F075F9C4F3072002F071F9E0B2E0
:101D900002F06EF9069C200E02F06AF9C4F30740C7
:101DA00002F066F9C4F3072002F062F9E0B202F033
:101DB0005FF9099C200E02F05BF9C4F3074002F0C2
:101DC00057F9C4F3072002F053F9E0B202F050F9DA
:101DD000089C200E02F04CF9C4F3074002F048F9C9
:101DE000C4F3072002F044F9E0B202F041F90B9C81
:101DF000200E02F03DF9C4F3074002F039F9C4F3B4
:101E0000072002F035F9E0B202F032F90A9C200E08
:101E100002F02EF9C4F3074002F02AF9C4F30720B8
:101E200002F026F9E0B202F023F90D9C200E02F038
:101E30001FF9C4F3074002F01BF9C4F3072002F0B6
:101E400017F9E0B202F014F90C9C200E02F010F920
:101E5000C4F3074002F00CF9C4F3072002F008F9BC
:101E6000E0B202F005F90F9C200E02F001F9C4F374
:101E7000074002F0FDF8C4F3072002F0F9F8E0B2E1
:101E800002F0F6F80E9C200E02F0F2F8C4F30740C0
:101E900002F0EEF8C4F3072002F0EAF8E0B202F034
:101EA000E7F8119C200E02F0E3F8C4F3074002F0BB
:101EB000DFF8C4F3072002F0DBF8E0B202F0D8F854
:101EC000109C200E02F0D4F8C4F3074002F0D0F8C2
:101ED000C4F3072002F0CCF8E0B213B0BDE8F04F35
:101EE00002F0C6B813B0BDE8F08F2DE9F74F994660
:101EF000109B0093119B019382469046DDE90C678D
:101F0000DDE90E459DF848B002F09EF8252840F323
:101F10008B80002002F0ACF82F2002F0A9F8BAF86C
:101F20000E00000A02F0A4F89AF80E0002F0A0F8E1
:101F30004FEA196002F09CF8C9F3074002F098F8E4
:101F4000C9F3072002F094F85FFA89F002F090F8E4
:101F50004FEA186002F08CF8C8F3074002F088F8E6
:101F6000C8F3072002F084F85FFA88F002F080F8E6
:101F7000380E02F07DF8C7F3074002F079F8C7F396
:101F8000072002F075F8F8B202F072F8300E02F095
:101F90006FF8C6F3074002F06BF8C6F3072002F0B3
:101FA00067F8F0B202F064F8280E02F061F8C5F3A9
:101FB000074002F05DF8C5F3072002F059F8E8B2D7
:101FC00002F056F8200E02F053F8C4F3074002F076
:101FD0004FF8C4F3072002F04BF8E0B202F048F8E3
:101FE000019C200E02F044F8C4F3074002F040F8D0
:101FF000C4F3072002F03CF8E0B202F039F8009C8C
:10200000200E02F035F8C4F3074002F031F8C4F3B3
:10201000072002F02DF8E0B202F02AF8584603B08B
:10202000BDE8F04F02F024B803B0BDE8F08F70B502
:1020300004460E46154602F007F8062814DD002077
:1020400002F016F8302002F013F8E089000A02F0DE
:102050000FF8A07B02F00CF8304602F009F8284691
:10206000BDE8704002F004B870BD70B504460E467D
:10207000154601F0E9FF062814DD002001F0F8FF05
:10208000312001F0F5FFE089000A01F0F1FFA07BAB
:1020900001F0EEFF304601F0EBFF2846BDE870404E
:1020A00001F0E6BF70BD10B5044601F0CDFF042875
:1020B0000EDD002001F0DCFF322001F0D9FF208A84
:1020C000000A01F0D5FF207CBDE8104001F0D0BF30
:1020D00010BD38B504460D4601F0B6FF052811DDE8
:1020E000002001F0C5FF332001F0C2FF608A000A22
:1020F00001F0BEFFA07C01F0BBFF2846BDE83840E0
:1021000001F0B6BF38BD38B504460D4601F09CFF5E
:10211000052811DD002001F0ABFF342001F0A8FFFD
:10212000608A000A01F0A4FFA07C01F0A1FF28460C
:10213000BDE8384001F09CBF38BD38B504460D46B7
:1021400001F082FF052811DD002001F091FF35200C
:1021500001F08EFF208B000A01F08AFF207E01F043
:1021600087FF2846BDE8384001F082BF38BD10B572
:10217000044601F069FF04280EDD002001F078FF1D
:10218000362001F075FF608B000A01F071FFA07E20
:10219000BDE8104001F06CBF10BD10B5044601F061
:1021A00053FF04280EDD002001F062FF372001F00C
:1021B0005FFF6088000A01F05BFFA078BDE8104077
:1021C00001F056BF10BDFFFF034B5B88834202D175
:1021D000024804F087BD7047CC88FF1F8088FF1F2E
:1021E00003494988814202D1024802F0BFBF7047CB
:1021F0002C89FF1FBC88FF1F034B5A89824202D1E2
:10220000184602F07DB970477088FF1F034B1B8989
:10221000834202D1024802F04DBF70478088FF1F01
:10222000BC88FF1F034BDB89834202D1024802F0C6
:102230000BBC70478088FF1F1489FF1F03498988E2
:10224000814202D1024804F021BB70477088FF1F11
:102250008088FF1F03494988814202D1024804F067
:10226000B9BB7047FC88FF1F8088FF1F034B1A8B88
:10227000824202D1184604F0FFBB70478088FF1FDE
:10228000034BDA88824202D1184603F007BE70473A
:10229000D888FF1F03498989814202D1024803F08F
:1022A0003FBD70478088FF1FD888FF1F034B9B8965
:1022B000834202D1024803F01ABF70478088FF1F93
:1022C000D888FF1F034BDB89834202D1024802F00A
:1022D000E1BB70478088FF1F1489FF1F034BDA881A
:1022E000824202D1184603F0EFBD7047D888FF1F25
:1022F000034B5B88834202D1024802F0E3BF704780
:102300002C89FF1FBC88FF1F034B1A89824202D110
:10231000184602F0F1BE7047BC88FF1F10B4054C90
:10232000A488844203D1044810BC02F02DB910BC2B
:10233000704700BFE488FF1F7088FF1F38B5124B3D
:102340009B88834204460D4602D1104804F0F4FBFA
:102350000F4B1B89A34203D129460C4804F0ECFB28
:102360000C4B9B88A34203D12946084804F0E4FBA8
:10237000094BDB88A34205D129460448BDE8384013
:1023800004F0DABB38BD00BFFC88FF1F8088FF1F48
:102390007088FF1FD888FF1FE488FF1F034B9B88AE
:1023A000834202D1024801F04DBF7047F088FF1F01
:1023B0007088FF1F10B4064C9DF81C10E4898442FD
:1023C00004D10791034810BC02F0CCBA10BC70478E
:1023D0008088FF1F1489FF1F034B9B88834202D113
:1023E000024803F0B1B87047BC88FF1F2C89FF1F5B
:1023F000034B5A89824202D1184602F070B87047E6
:102400007088FF1F034B5A88824202D1184602F09F
:1024100055BA7047AC88FF1F034B5B88834202D1DB
:10242000024802F083BF7047BC88FF1F2C89FF1F42
:10243000034B5B88834202D1024804F064BC7047BE
:10244000CC88FF1F8088FF1F034B5B8A834202D129
:10245000024804F001BD70478088FF1FA088FF1F5D
:10246000034BDB88834202D1024804F024BC70474E
:10247000BC88FF1F8088FF1F034B5B88834202D10B
:10248000024804F0F1BB7047D888FF1F8088FF1F07
:10249000054B10B4DC88844203D1184610BC03F00D
:1024A0001DBF10BC704700BFF088FF1F034BDB88C7
:1024B000834202D1024804F0E7BB7047BC88FF1F8B
:1024C0008088FF1F034B5B88834202D1024802F0E1
:1024D000A5BC7047F088FF1FE488FF1F034B5A8894
:1024E000824202D1184604F0E9BC7047A088FF1F61
:1024F00003498988814202D1024803F055B87047E8
:10250000BC88FF1F2C89FF1F034B1B89834202D10C
:10251000024802F0E0BD70478088FF1FBC88FF1FA3
:10252000034B9A88824202D1184604F019B87047CA
:102530000889FF1F034BDB88834202D1024804F065
:1025400087B870471C89FF1F8088FF1F034B9B893A
:10255000834202D1024803F0B9BD70478088FF1F53
:10256000D888FF1F034BDB88834202D1024804F066
:1025700051B970471C89FF1F8088FF1F034B1B8ABE
:10258000834202D1024803F03BBF70478088FF1F9F
:102590000889FF1F034B5B89834202D1024803F085
:1025A000EDBD70478088FF1FCC88FF1F034BDA8882
:1025B000824202D1184603F05BBC7047D888FF1FE7
:1025C000034B9B88834202D1024802F0A6BD7047AC
:1025D0002C89FF1FBC88FF1F034B9A88824202D1BF
:1025E000184603F0C3B970471C89FF1F034B5B8873
:1025F000834202D1024802F049BF7047BC88FF1FE6
:102600002C89FF1F034B9B88834202D1024803F0B1
:1026100014B97047AC88FF1F1C89FF1F034B5B8AEE
:10262000834202D1024804F0E5BB70478088FF1F57
:10263000A088FF1F034B9B88834202D1024803F00E
:102640005DB97047AC88FF1F1C89FF1F034B5B8877
:10265000834202D1024804F0F1BA7047D888FF1FC4
:102660008088FF1F0349C988814202D1024803F0D4
:102670005FB870478088FF1FFC88FF1F034BDB8813
:10268000834202D1024804F0BFBA70471C89FF1F81
:102690008088FF1F2DE9F04FBFB001F0FDFC000264
:1026A00084B201F0F9FC204480B20138362842D8C7
:1026B000DFE810F0F403D401C901BE01B301A801A1
:1026C0009D01FD058E01830167068E0778016D016E
:1026D00062015301E30148014301970438012D01D0
:1026E000220117010C0143010101F600EB00E0009B
:1026F000D500CA0043015907BF0024072D0AB400C2
:102700008A09A9009E009300880043057D003A05D0
:102710007E06DE03E60572006300540045004301B7
:10272000370001F0B9FC044601F0B6FC00EB0420D0
:1027300080B2FFF7D3FE01203FB0BDE8F08F01F07B
:10274000ABFC054601F0A8FC044601F0A5FC04EB37
:1027500005240146A0B2FFF789FDECE701F09CFCDF
:10276000054601F099FC044601F096FC04EB0524B3
:102770000146A0B2FFF768FEDDE701F08DFC0546DB
:1027800001F08AFC044601F087FC04EB05240146B5
:10279000A0B2FFF743FFCEE701F07EFC044601F054
:1027A0007BFC00EB042080B2FFF7E8FEC3E701F0FA
:1027B00073FC044601F070FC00EB042080B2FFF7CC
:1027C00075FDB8E701F068FC044601F065FC00EB1C
:1027D000042080B2FFF7BAFEADE701F05DFC0446CD
:1027E00001F05AFC00EB042080B2FFF7D3FEA2E711
:1027F00001F052FC044601F04FFC00EB042080B2D3
:10280000FFF782FE97E701F047FC044601F044FC25
:1028100000EB042080B2FFF7F9FC8CE701F03CFCF0
:10282000044601F039FC00EB042080B2FFF778FE8B
:1028300081E701F031FC044601F02EFC00EB04209E
:1028400080B2FFF7ABFD76E701F026FC044601F00D
:1028500023FC00EB042080B2FFF7EAFD6BE701F0F8
:102860001BFC044601F018FC00EB042080B2FFF7CB
:10287000ABFC60E701F010FC044601F00DFC00EB3E
:10288000042080B2FFF72AFD55E701F005FC04465D
:1028900001F002FC00EB042080B2FFF7F1FC4AE7F4
:1028A00001F0FAFB044601F0F7FB00EB042080B2D4
:1028B000FFF77CFE3FE701F0EFFB044601F0ECFB85
:1028C00000EB042080B2FFF7D7FD34E701F0E4FB12
:1028D000044601F0E1FB00EB042080B2FFF7B6FEF6
:1028E00029E701F0D9FB044601F0D6FB00EB0420F8
:1028F00080B2FFF7C3FE1EE701F0CEFB044601F0F5
:10290000CBFB00EB042080B2FFF72CFE13E701F0B5
:10291000C3FB044601F0C0FB00EB042080B2FFF7CC
:1029200009FE08E701F0B8FB044601F0B5FB00EB37
:10293000042080B2FFF750FEFDE601F0ADFB01F090
:10294000ABFBF8E601F0A8FB044601F0A5FB00EBA9
:10295000042080B2FFF734FEEDE601F09DFB054652
:1029600001F09AFB044601F097FB04EB05240146B5
:10297000A0B2FFF7BDFCDEE601F08EFB044601F0DD
:102980008BFB00EB042080B2FFF7BEFCD3E601F026
:1029900083FB044601F080FB00EB042080B2FFF7CC
:1029A0005FFDC8E601F078FB044601F075FB00EB23
:1029B000042080B2FFF77AFDBDE601F06DFB04460E
:1029C00001F06AFB00EB042080B2FFF70FFEB2E6D5
:1029D00001F062FB054601F05FFB044601F05CFB81
:1029E00004EB05240146A0B2FFF716FDA3E601F0B3
:1029F00053FB044601F050FB00EB042080B2FFF7CC
:102A000001FE98E601F048FB044601F045FB00EBAF
:102A1000042080B2FFF70EFE8DE601F03DFB044678
:102A200001F03AFB00EB042080B2FFF7EBFC82E6FA
:102A300001F032FB044601F02FFB00EB042080B2D2
:102A4000FFF7DAFB77E601F027FB044601F024FBF1
:102A500000EB042080B2FFF7CBFC6CE601F01CFB1E
:102A6000054601F019FB044601F016FB04EB0524B2
:102A70000146A0B2FFF762FC5DE6002425AD01F03F
:102A80000BFB28550134622CF9D100230024CDE939
:102A900016349DF89610179B61F31F639DF89710ED
:102AA00061F317439DF8981061F30F239DF8991077
:102AB00061F3070317939DF89A10169B61F31F6348
:102AC0009DF89B1061F317439DF89C1061F30F2351
:102AD0009DF89D1061F30703169300240023CDE9B0
:102AE00018349DF89E10199861F31F609DF89F108F
:102AF00061F317409DF8A01061F30F209DF8A1101D
:102B000061F3070019909DF8A210189861F31F60F7
:102B10009DF8A31061F317409DF8A41061F30F20F6
:102B20009DF8A510CDE91A3461F3070018909DF8BF
:102B3000A6101B9861F31F609DF8A71061F3174062
:102B40009DF8A81061F30F209DF8A91061F307000C
:102B50001B909DF8AA101A989DF8AE409DF8BE6093
:102B60009DF8C6C061F31F609DF8AB1061F317407C
:102B70009DF8AC1061F30F209DF8AD1061F30700D4
:102B8000002164F31F619DF8AF401A9064F3174170
:102B90009DF8B04064F30F219DF8B14064F3070144
:102BA0009DF8B240002064F31F609DF8B34064F3C9
:102BB00017409DF8B44064F30F209DF8B54064F3CE
:102BC00007009DF8B6404FF0000B64F31F6B9DF8B3
:102BD000B74064F3174B9DF8B84064F30F2B9DF892
:102BE000B940002564F3070B9DF8BA4066F31F65F2
:102BF0004FF0000A9DF8BF6064F31F6A9DF8BB4068
:102C000066F317459DF8C06064F3174A9DF8BC4011
:102C100066F30F259DF8C16064F30F2A9DF8BD404F
:102C200066F307059DF8C26064F3070A002466F3A3
:102C30001F649DF8C360002766F317446CF31F6799
:102C40009DF8C4609DF8C7C066F30F246CF3174766
:102C50009DF8C5609DF8C8C06CF30F279DF8C9C0EA
:102C60006CF307079DF8CAC066F3070400266CF3EF
:102C70001F669DF8CBC06CF317469DF8CCC00022B0
:102C80006CF30F2600239DF8CDC0CDE91C231D9BBE
:102C90006CF307069DF8CEC06CF31F639DF8CFC0A0
:102CA0006CF317439DF8D0C06CF30F239DF8D1C08F
:102CB0006CF307031D939DF8D2C01C9B6CF31F633C
:102CC0009DF8D3C06CF317439DF8D4C06CF30F2369
:102CD0009DF8D5C06CF307031C9300220023CDE9B7
:102CE0001E239DF8D6C01F9B6CF31F639DF8D7C0B1
:102CF0006CF317439DF8D8C06CF30F239DF8D9C02F
:102D00006CF307031F939DF8DAC01E9B6CF31F63DF
:102D10009DF8DBC06CF317439DF8DCC06CF30F2308
:102D20009DF8DDC06CF307031E93002200239DF87D
:102D3000DEC0CDE92023219B6CF31F639DF8DFC02B
:102D40006CF317439DF8E0C06CF30F239DF8E1C0CE
:102D50006CF3070321939DF8E2C0209B6CF31F6383
:102D60009DF8E3C06CF317439DF8E4C06CF30F23A8
:102D70009DF8E5C06CF30703209300220023CDE902
:102D800022239DF8E6C0239B6CF31F639DF8E7C0E8
:102D90006CF317439DF8E8C06CF30F239DF8E9C06E
:102DA0006CF3070323939DF8EAC0229B6CF31F6327
:102DB0009DF8EBC06CF317439DF8ECC06CF30F2348
:102DC0009DF8EDC06CF307039DF8EEC022934FF021
:102DD00000096CF31F699DF8EFC06CF317499DF86B
:102DE000F0C06CF30F299DF8F1C06CF307099DF852
:102DF000F2C04FF000086CF31F689DF8F3C06CF34D
:102E000017489DF8F4C09DF894E06CF30F289DF8E6
:102E1000F5C06CF30708CDE91489DDE92289CDE915
:102E20001289DDE92089CDE90845CDE91089DDE980
:102E30001A45DDE91E899DF895C0CDE90E89CDE9D9
:102E40000245DDE91C89DDE918450CEB0E2CCDE9C6
:102E50000401CDE90C89CDE90A67CDE906ABCDE9DE
:102E60000045DDE916231FFA8CF0FFF7B9F962E49B
:102E7000002425AD01F010F928550134042CF9D1B6
:102E80009DF894309DF895009DF897209DF8961038
:102E900000EB032080B2FFF7C5F94CE4002425AD18
:102EA00001F0FAF828550134222CF9D19DF896103A
:102EB000002361F31F639DF8971061F317439DF89A
:102EC000981061F30F239DF8991061F307039DF8A3
:102ED0009A10002261F31F629DF89B1061F3174264
:102EE0009DF89C1061F30F229DF89D1061F307027D
:102EF0009DF89E10002561F31F659DF89F1061F3FA
:102F000017459DF8A01061F30F259DF8A11061F3FE
:102F100007059DF8A210002461F31F649DF8A3101B
:102F200061F317449DF8A41061F30F249DF8A510D8
:102F300061F307049DF8A610002761F31F679DF851
:102F4000A71061F317479DF8A81061F30F279DF8AC
:102F5000A91061F307079DF8AA10002661F31F6608
:102F60009DF8AB1061F317469DF8AC1061F30F2686
:102F70009DF8AD1061F307069DF8AE104FF0000903
:102F800061F31F699DF8AF1061F317499DF8B01008
:102F900061F30F299DF8B11061F307099DF8B21094
:102FA0004FF0000861F31F689DF8B31061F31748F4
:102FB0009DF8B41061F30F289DF8B51061F3070870
:102FC0009DF894109DF8950000EB0120CDE904894F
:102FD000CDE90267CDE9004580B2FFF72FF9FFF791
:102FE000AABB002425AD01F057F828550134222C46
:102FF000F9D19DF89610002361F31F639DF8971097
:1030000061F317439DF8981061F30F239DF8991011
:1030100061F307039DF89A10002261F31F629DF887
:103020009B1061F317429DF89C1061F30F229DF8ED
:103030009D1061F307029DF89E10002561F31F6546
:103040009DF89F1061F317459DF8A01061F30F25BF
:103050009DF8A11061F307059DF8A210002461F30B
:103060001F649DF8A31061F317449DF8A41061F349
:103070000F249DF8A51061F307049DF8A610002702
:1030800061F31F679DF8A71061F317479DF8A8101B
:1030900061F30F279DF8A91061F307079DF8AA10A7
:1030A000002661F31F669DF8AB1061F317469DF88B
:1030B000AC1061F30F269DF8AD1061F307069DF883
:1030C000AE104FF0000961F31F699DF8AF1061F376
:1030D00017499DF8B01061F30F299DF8B11061F305
:1030E00007099DF8B2104FF0000861F31F689DF8C2
:1030F000B31061F317489DF8B41061F30F289DF8E1
:10310000B51061F307089DF894109DF8950000EB49
:103110000120CDE90489CDE90267CDE9004580B2FF
:10312000FFF798F8FFF707BB6224013C00F0B4FFFB
:1031300014F0FF04F9D1FFF7FEBA002425AD00F02A
:10314000ABFF28550134222CF9D19DF896100023AD
:1031500061F31F639DF8971061F317439DF8981072
:1031600061F30F239DF8991061F307039DF89A10FE
:10317000002261F31F629DF89B1061F317429DF8D6
:103180009C1061F30F229DF89D1061F307029DF8DA
:103190009E10002561F31F659DF89F1061F3174590
:1031A0009DF8A01061F30F259DF8A11061F30705AC
:1031B0009DF8A210002461F31F649DF8A31061F331
:1031C00017449DF8A41061F30F249DF8A51061F336
:1031D00007049DF8A610002761F31F679DF8A7104C
:1031E00061F317479DF8A81061F30F279DF8A91008
:1031F00061F307079DF8AA10002661F31F669DF88A
:10320000AB1061F317469DF8AC1061F30F269DF8E3
:10321000AD1061F307069DF8AE104FF0000961F3A1
:103220001F699DF8AF1061F317499DF8B01061F365
:103230000F299DF8B11061F307099DF8B2104FF006
:10324000000861F31F689DF8B31061F317489DF8FB
:10325000B41061F30F289DF8B51061F307089DF8CD
:1032600094109DF8950000EB0120CDE90489CDE98B
:103270000267CDE9004580B2FFF70CF8FFF75BBAB3
:10328000002425AD00F008FF28550134042CF9D1A5
:103290009DF894309DF895009DF897209DF8961024
:1032A00000EB032080B2FFF70DF8FFF744BA0024CB
:1032B00025AD00F0F1FE28550134162CF9D19DF80A
:1032C00096309DF89E009DF89460002163F31F6185
:1032D0009DF8973063F317419DF8983063F30F2101
:1032E0009DF8993063F307019DF89A30002263F34B
:1032F0001F629DF89B3063F317429DF89C3063F387
:103300000F229DF89D3063F30702002360F31F63D3
:103310009DF89F0060F317439DF8A00060F30F2312
:103320009DF8A10060F307039DF8A200002460F35C
:103330001F649DF8A30060F317449DF8A40060F398
:103340000F249DF8A50060F307049DF8A600002552
:1033500060F31F659DF8A70060F317459DF8A8006E
:1033600060F30F259DF8A90060F307059DF895000F
:1033700000EB0620CDE9004580B2FEF7CFFFFFF756
:10338000DAB9002425AD00F087FE28550134042C5D
:10339000F9D19DF894309DF895009DF897209DF8FF
:1033A000961000EB032080B2FFF716F8FFF7C3B9C1
:1033B000002425AD00F070FE28550134232CF9D1EE
:1033C0009DF89610002361F31F639DF8971061F339
:1033D00017439DF8981061F30F239DF8991061F33E
:1033E00007039DF89A10002261F31F629DF89B105D
:1033F00061F317429DF89C1061F30F229DF89D1018
:1034000061F307029DF89E10002561F31F659DF88A
:103410009F1061F317459DF8A01061F30F259DF8EB
:10342000A11061F307059DF8A210002461F31F6449
:103430009DF8A31061F317449DF8A41061F30F24C5
:103440009DF8A51061F307049DF8A610002761F30D
:103450001F679DF8A71061F317479DF8A81061F347
:103460000F279DF8A91061F307079DF8AA10002601
:1034700061F31F669DF8AB1061F317469DF8AC1021
:1034800061F30F269DF8AD1061F307069DF8AE10AD
:103490004FF0000961F31F699DF8AF1061F3174900
:1034A0009DF8B01061F30F299DF8B11061F3070981
:1034B0009DF8B2104FF0000861F31F689DF8B3103B
:1034C00061F317489DF8B41061F30F289DF8B5100B
:1034D00061F307089DF894109DF8950000EB01201A
:1034E0009DF8B6100691CDE90489CDE90267CDE9D2
:1034F000004580B2FEF75EFFFFF71DB9002425AD41
:1035000000F0CAFD285501340A2CF9D19DF89630F7
:103510009DF89500002163F31F619DF8973063F3D8
:1035200017419DF8983063F30F219DF8993063F3AC
:1035300007019DF89A30002263F31F629DF89B30CB
:1035400063F317429DF89C3063F30F229DF89D3082
:1035500063F307029DF8943000EB032080B2FEF77E
:1035600097FFFFF7E8B8002425AD00F095FD28553A
:1035700001340A2CF9D19DF896309DF89500002170
:1035800063F31F619DF8973063F317419DF89830FE
:1035900063F30F219DF8993063F307019DF89A308A
:1035A000002263F31F629DF89B3063F317429DF87E
:1035B0009C3063F30F229DF89D3063F307029DF862
:1035C000943000EB032080B2FEF77CFFFFF7B3B826
:1035D000002425AD00F060FD28550134622CF9D19E
:1035E00000230024CDE916349DF89610179B61F353
:1035F0001F639DF8971061F317439DF8981061F3CE
:103600000F239DF8991061F3070317939DF89A1003
:10361000169B61F31F639DF89B1061F317439DF8A0
:103620009C1061F30F239DF89D1061F3070316931F
:1036300000240023CDE918349DF89E10199861F3F9
:103640001F609DF89F1061F317409DF8A01061F373
:103650000F209DF8A11061F3070019909DF8A210AA
:10366000189861F31F609DF8A31061F317409DF84F
:10367000A41061F30F209DF8A510CDE91A3461F371
:10368000070018909DF8A6101B9861F31F609DF825
:10369000A71061F317409DF8A81061F30F209DF863
:1036A000A91061F307001B909DF8AA101A989DF8C5
:1036B000AE409DF8BE609DF8C6C061F31F609DF8E6
:1036C000AB1061F317409DF8AC1061F30F209DF82B
:1036D000AD1061F30700002164F31F619DF8AF4056
:1036E0001A9064F317419DF8B04064F30F219DF8E0
:1036F000B14064F307019DF8B240002064F31F60FD
:103700009DF8B34064F317409DF8B44064F30F2074
:103710009DF8B54064F307009DF8B6404FF0000BEC
:1037200064F31F6B9DF8B74064F3174B9DF8B840E6
:1037300064F30F2B9DF8B940002564F3070B9DF847
:10374000BA4066F31F654FF0000A9DF8BF6064F34E
:103750001F6A9DF8BB4066F317459DF8C06064F38F
:10376000174A9DF8BC4066F30F259DF8C16064F3CD
:103770000F2A9DF8BD4066F307059DF8C26064F30B
:10378000070A002466F31F649DF8C360002766F3F0
:1037900017446CF31F679DF8C4609DF8C7C066F3BB
:1037A0000F246CF317479DF8C5609DF8C8C06CF3F3
:1037B0000F279DF8C9C06CF307079DF8CAC066F3D0
:1037C000070400266CF31F669DF8CBC06CF3174608
:1037D0009DF8CCC000226CF30F2600239DF8CDC0CD
:1037E000CDE91C231D9B6CF307069DF8CEC06CF33E
:1037F0001F639DF8CFC06CF317439DF8D0C06CF3E6
:103800000F239DF8D1C06CF307031D939DF8D2C020
:103810001C9B6CF31F639DF8D3C06CF317439DF89A
:10382000D4C06CF30F239DF8D5C06CF307031C9331
:1038300000220023CDE91E239DF8D6C01F9B6CF308
:103840001F639DF8D7C06CF317439DF8D8C06CF385
:103850000F239DF8D9C06CF307031F939DF8DAC0BE
:103860001E9B6CF31F639DF8DBC06CF317439DF840
:10387000DCC06CF30F239DF8DDC06CF307031E93CF
:10388000002200239DF8DEC0CDE92023219B6CF3AC
:103890001F639DF8DFC06CF317439DF8E0C06CF325
:1038A0000F239DF8E1C06CF3070321939DF8E2C05C
:1038B000209B6CF31F639DF8E3C06CF317439DF8E6
:1038C000E4C06CF30F239DF8E5C06CF3070320936D
:1038D00000220023CDE922239DF8E6C0239B6CF350
:1038E0001F639DF8E7C06CF317439DF8E8C06CF3C5
:1038F0000F239DF8E9C06CF3070323939DF8EAC0FA
:10390000229B6CF31F639DF8EBC06CF317439DF88B
:10391000ECC06CF30F239DF8EDC06CF307039DF82A
:10392000EEC022934FF000096CF31F699DF8EFC0C1
:103930006CF317499DF8F0C06CF30F299DF8F1C0A6
:103940006CF307099DF8F2C04FF000086CF31F6894
:103950009DF8F3C06CF317489DF8F4C09DF894E00F
:103960006CF30F289DF8F5C06CF30708CDE91489B6
:10397000DDE92289CDE91289DDE92089CDE9084513
:10398000CDE91089DDE91A45DDE91E899DF895C06C
:10399000CDE90E89CDE90245DDE91C89DDE918454F
:1039A0000CEB0E2CCDE90401CDE90C89CDE90A67B9
:1039B000CDE906ABCDE90045DDE916231FFA8CF011
:1039C000FEF796FDFEF7B7BE002425AD00F064FBC0
:1039D00028550134222CF9D19DF89610002361F36B
:1039E0001F639DF8971061F317439DF8981061F3DA
:1039F0000F239DF8991061F307039DF89A10002298
:103A000061F31F629DF89B1061F317429DF89C10B3
:103A100061F30F229DF89D1061F307029DF89E103F
:103A2000002561F31F659DF89F1061F317459DF810
:103A3000A01061F30F259DF8A11061F307059DF813
:103A4000A210002461F31F649DF8A31061F31744D2
:103A50009DF8A41061F30F249DF8A51061F30704ED
:103A60009DF8A610002761F31F679DF8A71061F36A
:103A700017479DF8A81061F30F279DF8A91061F36F
:103A800007079DF8AA10002661F31F669DF8AB108A
:103A900061F317469DF8AC1061F30F269DF8AD1049
:103AA00061F307069DF8AE104FF0000961F31F693E
:103AB0009DF8AF1061F317499DF8B01061F30F291D
:103AC0009DF8B11061F307099DF8B2104FF000089E
:103AD00061F31F689DF8B31061F317489DF8B410A7
:103AE00061F30F289DF8B51061F307089DF8941055
:103AF0009DF8950000EB0120CDE90489CDE902672E
:103B0000CDE9004580B2FEF7ADFDFEF714BE62249C
:103B1000013C00F0C1FA14F0FF04F9D1FEF70BBE2E
:103B200008B500F099FA18B9BDE80840FEF7B2BD33
:103B3000002008BD38B5C348C34C00F0A9FBC348FA
:103B400000F0DAFBC24800F0EDFCC24800F002FDD4
:103B5000C14800F05BFEC14800F080FEC04800F0A4
:103B600095FEC04800F0DCFFBF4801F003F8BF48F5
:103B700001F064F9BE4801F07BF9BE4801F090F90C
:103B8000BD4801F0A9F9BD4801F0D8FABC4801F0E0
:103B900069FBBC4801F07EFBBB4801F0ADFBBB48B4
:103BA00001F0D6FBBA4801F0B7FCBA4801F0E4FCDA
:103BB000B94801F06DFDB94801F09EFDB84801F02B
:103BC0004FFEB84801F06AFEB74801F07FFEB748E3
:103BD00001F0B4FEB64802F03BF8B64802F050F8E7
:103BE000B54802F065F8B54802F068F8B44802F04C
:103BF0007FF8B44802F0D0F8B34802F0E5F8B348D3
:103C000002F0A4FAB24802F0CFFAB24802F0D2FAB7
:103C1000B14802F047FBB14802F06CFBB04802F03B
:103C200081FBB04802F0FEFBAF4802F0EFFCAF486A
:103C300002F044FDAE4802F075FDAE4802F08AFD88
:103C4000AD4802F09FFDAD4802F0B4FDAC4802F073
:103C5000C9FDAC4802F0E6FDAB4802F043FEAB48BC
:103C600002F046FEAA4802F05FFEAA4802F078FE83
:103C7000A94802F0E1FEA94802F0E4FEA84802F0DB
:103C800013FFA84802F05EFFA74803F04DF8A748CD
:103C9000012503F027F92046257000F0B9F960806E
:103CA000204600F0B5F9A080204600F0B1F9E08090
:103CB000204600F0ADF92081204600F0A9F9214608
:103CC0006081E5609A4C002000F0FAFB20462570E8
:103CD00000F09EF96080204600F09AF907232373D4
:103CE0002146A080A560934C002000F073FD204683
:103CF000257000F08DF92146608065608E4C0020B3
:103D000000F00EFE2046257000F082F9608020460B
:103D100000F07EF9A080204600F07AF92146E0808C
:103D2000A560864C002000F0F7FE2046257000F0CC
:103D30006FF96080204600F06BF92146A080A560F5
:103D40007F4C002001F0D3FA2046257000F060F986
:103D50006080204600F05CF9A080204600F058F911
:103D6000E080204600F054F921462081E560754C42
:103D7000002001F04FF92046257000F049F96080DD
:103D8000204600F045F92146A080A5606E4C002039
:103D900001F07AFC2046257000F03AF96080204658
:103DA00000F036F9A080204600F032F9674BE3605E
:103DB0002146E080A560664C002001F01DFD2046F4
:103DC000257000F025F96080204600F021F9A080E0
:103DD000204600F01DF92146E080A5605D4C0020E2
:103DE00002F00AF82046257000F012F960802046A3
:103DF00000F00EF92146A080A560574C002002F08B
:103E00009CF92046257000F003F96080204600F000
:103E1000FFF8A080204600F0FBF82146E080A56076
:103E20004E4C002002F034FA2046257000F0F0F8E5
:103E30006080204600F0ECF82146A080A560484C48
:103E400000208FE02D0400007088FF1F6705000030
:103E50009B050000C7050000F30500001F060000D9
:103E60004B060000770600004507000079070000B8
:103E7000AD070000D9070000150800009D0B0000E9
:103E8000710B0000C90B0000F50B0000290C0000AD
:103E9000B10F0000850F0000DD0F000017110000BA
:103EA0004B110000A311000077110000CF1100009A
:103EB000FB11000053120000271200007F120000C7
:103EC0000B130000B3120000DF12000063130000A8
:103ED000371300008F130000BB13000023140000F1
:103EE0004F140000B7140000131800003F18000022
:103EF00079190000A5190000D1190000631B00000A
:103F0000FD190000291A00008F1B00006B20000023
:103F10002F200000EB1E0000A7200000072100005A
:103F2000D32000003B2100006F2100009B210000F6
:103F3000AC88FF1F1489FF1FE488FF1F2C89FF1F17
:103F4000BC88FF1FFC88FF1F1C89FF1FE803FA00C5
:103F5000D888FF1FCC88FF1FF088FF1F0889FF1F2C
:103F6000A088FF1F02F03AFA2046257000F050F8B2
:103F70006080204600F04CF82146A080A560204CCF
:103F8000002002F019FF2046257000F041F8608003
:103F9000204600F03DF8A080204600F039F8E0808F
:103FA000204600F035F82081204600F031F860818D
:103FB000204600F02DF8A081204600F029F8E0818D
:103FC000204600F025F82082204600F021F860828B
:103FD000204600F01DF8A082204600F019F8E0828B
:103FE000204600F015F82083204600F011F8E56126
:103FF000608321460020BDE8384002F0BDBD00BF0F
:104000008088FF1F08B5FFF795FDFFF789FDFCE7E6
:10401000044A0549138841F82300591C11801846A9
:10402000704700BFFC8BFF1F408BFF1F044A054BEE
:1040300010681B688342B8BF03F50073181A7047F5
:10404000388BFF1F3C8BFF1F08B5FFF7EFFFC0F554
:10405000FF70013008BDFFFF034B1868034B1B685E
:10406000C31A584258417047388BFF1F3C8BFF1FC3
:104070000749084A0B68D05401335A42C2F3080278
:10408000C3F3080358BF53420B600020704700BFC2
:104090003C8BFF1F3889FF1F08B5FFF7DDFF68B9AC
:1040A0000749084A0B68D05C01335A42C2F3080240
:1040B000C3F3080358BF53420B6008BD0020FCE760
:1040C000388BFF1F3889FF1F70B5044608460D4620
:1040D00009F03AFD23680246294620465B68BDE8A0
:1040E0007040184710B5026801238B4206DA50F879
:1040F0002340A24238BF22460133F6E7104610BDE6
:1041000010B5026801238B4206DA50F82340A24220
:1041100028BF22460133F6E7104610BDF8B50E461B
:10412000044611463046FFF7EBFF05463046FFF7E1
:10413000D9FF631BC3EBC30303F27233401BB3FB12
:10414000F0F0032896BF024B0020185CF8BD00BFBA
:1041500024DC000030B901290CD0022914BF04204E
:104160000320704741B9012808D0022814BF042059
:1041700001207047022070470420704708467047AE
:10418000F8B5084614461C491622FFF7C7FF162249
:1041900005461A492046FFF7C1FF06460146284654
:1041A000FFF7D8FF164C174907462046FFF78CFF4C
:1041B0002946154D204604F0DCF829462046FFF735
:1041C00083FF3146204604F0D4F829462046FFF705
:1041D0007BFF3946204604F0CCF829462046FFF7FD
:1041E00073FF0A4B2046196804F0C3F8294620469D
:1041F000FFF76AFFF8BD00BF108CFF1F688CFF1F20
:10420000D087FF1F30DC000032DC0000C48CFF1FB1
:10421000074810B50368074C44F823100649152BCE
:1042200041F82320D4BF01330023036010BD00BF39
:10423000308DFF1F108CFF1F688CFF1F08B9C868E6
:10424000FCE7704708B50378ABB10B490B480B6826
:1042500003F57C2303F50073B3FBF0F200FB12338C
:104260000B60074B1B7833B1064B1B781BB9064913
:104270000648FFF729FF08BDC08CFF1F804F1200C2
:10428000B491FF1FB591FF1F34DC0000D087FF1FE2
:10429000014B1860704700BF008CFF1F2DE9F047ED
:1042A0001349096888B08246CDE90623DDE9104547
:1042B000DDE91267DDE9148931B1CDE90489CDE981
:1042C0000267CDE9004588470A4B196861B1DDE90D
:1042D00006235046CDE91489CDE91267CDE9104592
:1042E00008B0BDE8F047084708B0BDE8F08700BF58
:1042F000008CFF1FC88CFF1F014B1860704700BF68
:10430000048CFF1F074B1B6870B504460D4603B1B4
:104310009847054B1B6823B129462046BDE87040ED
:10432000184770BD048CFF1FCC8CFF1FFFFFFFFFE1
:10433000012A2DE9F74F88BFC91A074608461546D6
:1043400008F072FF4EA3D3E9002308F0E7FF4EA365
:10435000D3E9002309F00CF94DA3D3E9002308F0B9
:1043600025FE15F0FD0F9DF8309006460C462BD12A
:1043700001F100444A4F4FEAC50A07EB0A03D3E9AB
:1043800000233046214608F011FE8346884600226D
:1043900000235846414609F051FA08B908F100488F
:1043A0003DA3D3E900235846414609F029FA28B134
:1043B0003C49324651442346C1E900235744324622
:1043C0002346C7E9002305E0042DD3D10F21384649
:1043D000FFF798FF344B1B78002B4DD0334B1B78E5
:1043E000002B49D0B9F1000F16D031493148FFF701
:1043F0006BFE29462F4803F0BCFF2F492D48FFF7DD
:1044000063FE06230093324623462A4803F0BCFF8E
:1044100029492848FFF758FE002D2DD1214D274965
:1044200024480624FFF750FE0094D5E900232148D4
:1044300003F0AAFF20491F48FFF746FE0094D5E984
:1044400002231C4803F0A0FF1B491A48FFF73CFE5B
:104450000094D5E90423174803F096FF1649154840
:10446000FFF732FED5E906231248009403F08CFFD3
:1044700011491048FFF728FE03B0BDE8F08F00BFD8
:10448000182D4454FB21094000000000804F1241C8
:10449000182D4454FB21F93F9A9999999999C93F4C
:1044A000E08CFF1F108DFF1FB491FF1FB591FF1F00
:1044B00028DC0000D087FF1F32DC00002CDC00006D
:1044C0000346012B084604D0022B05D033B9012343
:1044D000CB600C21FFF716BF0D21FBE77047027878
:1044E00008B503465AB1C068012808D11946FFF73C
:1044F000A5FE0220D860BDE80840FFF7E1BF08BD77
:10450000027808B503465AB1C068022808D1194696
:10451000FFF794FE0120D860BDE80840FFF7D0BF48
:1045200008BDFFFF014B1860704700BF0C8CFF1FD8
:10453000064B1B6810B5044603B19847044B1B6833
:104540001BB12046BDE81040184710BD0C8CFF1F62
:10455000D48CFF1F014B1860704700BF088CFF1FF1
:10456000064B1B6810B5044603B19847044B1B6803
:104570001BB12046BDE81040184710BD088CFF1F36
:10458000D08CFF1FFFFFFFFF2DE9F04F8DB01F46BE
:10459000DDE916A308930378079204460D46002B25
:1045A00061D0C368012B61D152463946FFF730FE16
:1045B000774A1368152B54DD162276493846FFF7E3
:1045C000ADFD1622064674495046FFF7A7FD014689
:1045D0003046FFF7BFFD714B19680646484200F0B0
:1045E000030001F0030258BF4242B2420BBF013147
:1045F000002219601A601B68192B09D12046FFF7A9
:1046000097FF674AB5FBF2F302FB1353654A136049
:1046100000230093079B08995B1B32462046FFF757
:1046200087FE6149D1E90623CDE90423D1E90423BA
:10463000CDE90223D1E90223CDE900232046D1E9C7
:104640000023FFF72BFE594B1B7863B1584B1B78A7
:104650004BB15246394620460DB0BDE8F04FFFF74A
:104660008FBD013313600DB0BDE8F08F022BFAD17E
:104670004C4B504E1A688A4288BF01F592159B46F2
:10468000336888BF05F57865EB1AA3F58C236FF4C2
:10469000A062134444F24E618B4205D9464B04227A
:1046A00001211A60FFF72EFE3560DBF80060AB1BBE
:1046B0001846099308F0B8FD2FA3D3E9002308F0AA
:1046C00057FF8946804609F0D9F808F0BDFD02463B
:1046D0000B464046494608F069FCDFF8E09028A305
:1046E000D3E90023CDE90A01D9F8008009F088F860
:1046F00010B33236CBF80060B8F1000F02D02F4A69
:1047000000231360099B089903F5123202F5F87231
:104710002B4BB2FBF3F201230093079B02F0030241
:104720005B1B2046FFF704FE234A1368002B3FF46F
:1047300078AF013B136086E713A3D3E90023DDE9DB
:104740000A0109F07BF808B1323ED3E708F1010312
:10475000B8F1020FC9F8003009DD2046FFF700FF6D
:104760000B2120460DB0BDE8F04FFFF7CBBD0A216D
:10477000F7E700BFAFF3008000000000804F124158
:104780009A9999999999B93FCDCCCCCCCCCCEC3FA6
:10479000D88CFF1F108CFF1F688CFF1FC48CFF1F5D
:1047A000804F1200C08CFF1F108DFF1FB491FF1FA0
:1047B000B591FF1F008DFF1F048DFF1F088DFF1F88
:1047C000E093040008B5007B03F0B2FBC0F10100E8
:1047D000C0B208BDF8B50A4E04460D4601276CB9B3
:1047E0000221287BAF6003F0B1FB04F03FF82046C4
:1047F00032467D2104F058F8AC68F0E7F8BD00BF00
:104800003D48000008B98868FCE77047014B186014
:10481000704700BF348DFF1F064B1B6810B5044660
:1048200003B19847044B1B681BB12046BDE81040FC
:10483000184710BD348DFF1F408DFF1F08B5054878
:10484000FFF7EAFF044A19210020BDE8084004F000
:104850002BB800BFAC88FF1F3D480000014B18601B
:10486000704700BF388DFF1F064B1B6810B504460C
:1048700003B19847044B1B681BB12046BDE81040AC
:10488000184710BD388DFF1F448DFF1F014B186066
:10489000704700BF3C8DFF1F064B1B6810B50446D8
:1048A00003B19847044B1B681BB12046BDE810407C
:1048B000184710BD3C8DFF1F488DFF1F38B503788A
:1048C00004461BB38568012D11D1FFF77BFFE8B1CA
:1048D000284621460225FFF795FFA5602046FFF7F1
:1048E000C3FF21462846BDE83840FFF773BF022DBD
:1048F0000CD1FFF767FF48B9284621460125FFF78D
:1049000081FFA5602046FFF7C7FFEAE738BD002317
:104910000A2203F0F5BC9DF80010009103F034BDAD
:10492000F0B5B0B901234B600A4B0B4C18680B4D26
:104930000B4E40F6C41122783AB12A78920704D07F
:104940001A683768D21B182A03D81A68121A8A42C2
:10495000F1D9F0BD8094FF1F7493FF1F1C92FF1FBD
:10496000A897FF1FD3B5164602781F469DF8303032
:10497000002A32D04268012A2FD10324002B2ED0E6
:104980002C492D48FFF7A0FB32463B4600942A48AD
:10499000FFF7C1FF29492848FFF796FBDDE9062309
:1049A00000942548FFF7B7FF24492348FFF78CFB05
:1049B000DDE9082300942048FFF7ADFF1F491E489A
:1049C000FFF782FB042300931B48DDE90A23FFF76E
:1049D000A2FF1A491848FFF777FB02B0D0BD18496B
:1049E0001548FFF771FB32463B4600941248FFF72B
:1049F00092FF14491048FFF767FBDDE90623009496
:104A00000D48FFF788FF0F490B48FFF75DFBDDE915
:104A1000082300940848FFF77EFF0A490648FFF77D
:104A200053FB042300930448DDE90A23FFF773FFD7
:104A3000D3E700BF4EDC0000D087FF1F32DC000050
:104A400052DC00005BDC0000037810B50C467BB143
:104A50004368012B0CD162B10A490B48FFF734FBC4
:104A600021460948FFF753FF08490748FFF72CFB89
:104A700010BD07490448FFF727FB21460248FFF70E
:104A800046FFF5E76CDC0000D087FF1F32DC00003A
:104A900070DC0000037810B50C467BB14368012B35
:104AA0000CD162B10A490B48FFF70EFB21460948B9
:104AB000FFF72DFF08490748FFF706FB10BD074920
:104AC0000448FFF701FB21460248FFF720FFF5E706
:104AD0005EDC0000D087FF1F32DC000062DC0000DB
:104AE00070B5044608460D4609F02EF823680246C4
:104AF000294620465B68BDE87040184700230A221B
:104B000003F0FEBB38B50546FFF7EAFF044628462A
:104B100003F0E6FB204438BD08B901238B607047E1
:104B2000014B1860704700BF4C8DFF1F2DE9F34704
:104B30000E4C24680746884691469A46DDE90A5697
:104B400014B1CDE90056A047094B1C6854B1534637
:104B50004A4641463846A446CDE90A5602B0BDE869
:104B6000F047604702B0BDE8F08700BF4C8DFF1FE3
:104B7000688DFF1F014B1860704700BF508DFF1FED
:104B8000074B1B6870B504460D4603B19847054BAB
:104B90001B6823B129462046BDE87040184770BD08
:104BA000508DFF1F6C8DFF1F2DE9F04F8E4B87B08E
:104BB00016461A78049382460F460AB38B4B1B782D
:104BC000F3B18B498B48FFF79DFF8B498948FFF76D
:104BD0007BFA8A498748FFF777FA24248548B7FB90
:104BE000F4F1FFF78BFF85498248FFF76DFAB6FBBA
:104BF000F4F18048FFF782FF80497E48FFF764FAAE
:104C00007F4C804D23692A691344FB1AB3F5616F09
:104C100016D323462A4604F1100153F8040F43F833
:104C2000040C994252F8040F42F8040CF5D1764A6C
:104C3000276113682E61012B174604DD013B1360C9
:104C400007B0BDE8F08FD5F800906FF4E16109EB93
:104C5000010242F256039A42F2D8D5F804806FF46A
:104C6000E16242449A42EBD8636803932668A3F555
:104C70004453393B9B1B40F60E629342E0D8A36835
:104C8000624AA3F51A43B13B9B1B9342D8D8E16813
:104C90005F48D5F808B0891B032381423B6000F2CE
:104CA000A08004213960504619460593FFF768FF3C
:104CB000E9688B4580F09580059B8B4620682169CB
:104CC000091A534881420CD839680593013139607B
:104CD00050460321FFF754FF2969059B594588BFBA
:104CE000042354F82350039AAD1B4B46CDE90085AD
:104CF00031465046FFF71AFF049B1B78002B9FD0CC
:104D00003A4B1B78002B9BD039493A48FFF7FAFE03
:104D100040493848FFF7D8F938493648FFF7D4F901
:104D2000304608F081FA00223B4B08F021FC4FF09E
:104D3000060A02460B46CDF800A02E4803F024FBDD
:104D40002E492C48FFF7C0F9484608F06DFA0022BA
:104D5000314B08F00DFCCDF800A002460B4625486B
:104D600003F012FB25492348FFF7AEF9404608F04F
:104D70005BFA0022284B08F0FBFBCDF800A00246AE
:104D80000B461C4803F000FB1C491A48FFF79CF92E
:104D9000284608F049FA00221F4B08F0E9FBCDF83D
:104DA00000A002460B46134803F0EEFA13491148DF
:104DB000FFF78AF939680F4803F0DBFA0F490D480D
:104DC000FFF782F93B680B4854F823108E1B24210F
:104DD000B6FBF1F1FFF792FE08490648FFF774F9B8
:104DE0002EE702236AE700BFB491FF1FB591FF1FB2
:104DF0005DDC0000D087FF1F79DC000032DC0000A2
:104E0000748DFF1F548DFF1F708DFF1FAE3D03007B
:104E1000FF6404007BDC00000000424010B4047812
:104E20002CB18368012B02D110BCFFF7BDBE10BCB2
:104E3000704708B9C868FCE77047FFFF014B18606E
:104E4000704700BF8C8DFF1F074B1B6870B5044671
:104E50000D4603B19847054B1B6823B129462046F0
:104E6000BDE87040184770BD8C8DFF1FA88DFF1FD7
:104E7000014B1860704700BF908DFF1F064B1B68E9
:104E800010B5044603B19847044B1B681BB120467C
:104E9000BDE81040184710BD908DFF1FAC8DFF1F5F
:104EA000014B1860704700BF948DFF1F084B1B68B3
:104EB00070B504460D46164603B19847054B1B686E
:104EC0002BB1324629462046BDE87040184770BDD8
:104ED000948DFF1FB08DFF1F014B1860704700BFFE
:104EE000988DFF1F2DE9F04FABB0DDE93645CDE9D8
:104EF0001645DDE93845CDE91845DDE93A45CDE906
:104F00001A45DDE93C45CDE91C45DDE93E4540A9B2
:104F1000CDE91E45D1E9004542A9CDE92045D1E9B9
:104F2000004544A9CDE92245D1E9004546A9D1E98A
:104F3000006748A9D1E90089344927900968CDE97B
:104F40002823DDE934ABCDE92445002924D0CDE97F
:104F50001045DDE92245CDE90E45DDE92045CDE9E5
:104F60000C45DDE91E45CDE90A45DDE91C45CDE9E5
:104F70000845DDE91A45CDE90645DDE91845CDE9E5
:104F80000445DDE91645CDE91489CDE91267CDE97F
:104F90000245CDE900AB88471D4B1968002931D087
:104FA00048ABC3E9008946ABC3E90067DDE92434B7
:104FB00044AAC2E90034DDE9223442AAC2E900343D
:104FC000DDE9203440AAC2E90034DDE91E34CDE930
:104FD0003E34DDE91C34CDE93C34DDE91A34CDE959
:104FE0003A34DDE91834CDE93834DDE91634CDE959
:104FF0003634DDE928232798CDE934AB2BB0BDE862
:10500000F04F08472BB0BDE8F08F00BF988DFF1F11
:10501000B48DFF1F10B5022896B00C4606D00328A9
:105020000BD008B90123CB6016B010BD002120467B
:1050300016B0BDE81040FFF707BF20462A22002126
:10504000FFF734FF194A1A4BD2E90A01CDE91401DE
:10505000D2E90801CDE91201D2E90601CDE910013A
:10506000D2E90401CDE90E01D2E90201CDE90C013A
:10507000D2E90001CDE90A01D3E90A01CDE908012D
:10508000D3E90801CDE90601D3E90601CDE9040120
:10509000D3E90401CDE90201D3E90201CDE9000120
:1050A0002046D3E90023FFF71DFFBDE7D095FF1F82
:1050B000A095FF1F027808B503465AB1C0680128C1
:1050C00008D11946FFF7B5FE0220D860BDE80840B8
:1050D000FFF7A0BF08BD027808B503465AB1C06803
:1050E000012808D11946FFF7A4FE0320D860BDE8C7
:1050F0000840FFF78FBF08BD027808B503465AB1D4
:10510000C068022808D11946FFF793FE0120D86035
:10511000BDE80840FFF77EBF08BD027808B503462A
:105120005AB1C068032808D11946FFF782FE012052
:10513000D860BDE80840FFF76DBF08BD014B18609F
:10514000704700BF9C8DFF1F064B1B6810B50446BF
:1051500003B19847044B1B681BB12046BDE81040C3
:10516000184710BD9C8DFF1FB88DFF1F2DE9F04F14
:1051700091B00446DDE91E01CDE90001DDE9200121
:10518000CDE90201DDE92201CDE90401DDE92401D7
:10519000CDE90601DDE92601CDE90801DDE92801B7
:1051A000CDE90A01DDE92A01CDE90C01DDE92C0197
:1051B000CDE90E012178DDE91A89DDE91CABDDE9D5
:1051C0002E67002943D0E068022840D12146FFF72E
:1051D00030FE2049C1E90023DDE900230125E56017
:1051E000C1E90623DDE90223C1E90823DDE904233F
:1051F000C1E90289C1E904ABC1E90A23DDE906126C
:10520000154BC3E90012DDE90812C3E90212DDE91A
:105210000A12C3E90412DDE90C12C3E90612DDE942
:105220000E12C3E90A67C3E908120C4B00210020E3
:10523000C3E900010A4B002220461A70FFF784FFE1
:105240002146284611B0BDE8F04FFFF7E3BE11B08C
:10525000BDE8F08FA095FF1FD095FF1F9895FF1F09
:105260009495FF1F014B1860704700BFA08DFF1F72
:10527000064B1B6810B5044603B19847044B1B68E6
:105280001BB12046BDE81040184710BDA08DFF1F80
:10529000BC8DFF1F014B1860704700BF888DFF1F3A
:1052A000064B1B6810B5044603B19847044B1B68B6
:1052B0001BB12046BDE81040184710BD888DFF1F68
:1052C000A48DFF1F037810B504467BB1C368022B81
:1052D0000CD12A2903D1BDE81040FFF7CFBDFFF75D
:1052E000C7FF2046BDE81040FFF7DABF10BD08B980
:1052F00001238B607047FFFF014B1860704700BFB0
:10530000C08DFF1F074B1B6870B504460D4603B1E7
:105310009847054B1B6823B129462046BDE87040DD
:10532000184770BDC08DFF1FD08DFF1F037810B5CB
:1053300004465BB18368012B08D1084602F082FF66
:1053400001462046BDE81040FFF7DCBF10BDFFFF5F
:10535000014B1860704700BFC48DFF1F2DE9F04F4F
:10536000ABB0DDE93645CDE91645DDE93845CDE997
:105370001845DDE93A45CDE91A45DDE93C45CDE979
:105380001C45DDE93E4540A9CDE91E45D1E9004572
:1053900042A9CDE92045D1E9004544A9CDE92245FE
:1053A000D1E9004546A9D1E9006748A9D1E90089BA
:1053B000344927900968CDE92823DDE934ABCDE9EC
:1053C0002445002924D0CDE91045DDE92245CDE969
:1053D0000E45DDE92045CDE90C45DDE91E45CDE969
:1053E0000A45DDE91C45CDE90845DDE91A45CDE969
:1053F0000645DDE91845CDE90445DDE91645CDE969
:105400001489CDE91267CDE90245CDE900AB8847A3
:105410001D4B1968002931D048ABC3E9008946AB60
:10542000C3E90067DDE9243444AAC2E90034DDE9B8
:10543000223442AAC2E90034DDE9203440AAC2E99C
:105440000034DDE91E34CDE93E34DDE91C34CDE91C
:105450003C34DDE91A34CDE93A34DDE91834CDE9DC
:105460003834DDE91634CDE93634DDE928232798D0
:10547000CDE934AB2BB0BDE8F04F08472BB0BDE809
:10548000F08F00BFC48DFF1FD48DFF1F30B5037890
:10549000AFB00546002B3DD08468012C3AD12046A0
:1054A00002F0D0FE16AB23440134612C03F8010C4A
:1054B000F5D1DDE92C23CDE91423DDE92A23CDE95B
:1054C0001223DDE92823CDE91023DDE92623CDE9E8
:1054D0000E23DDE92423CDE90C23DDE92223CDE9E8
:1054E0000A23DDE92023CDE90823DDE91E23CDE9E8
:1054F0000623DDE91C23CDE90423DDE91A23CDE9E8
:105500000223DDE918232846CDE90023DDE916232F
:10551000FFF724FF2FB030BD014B1860704700BF6C
:10552000C88DFF1F064B1B6810B5044603B1984792
:10553000044B1B681BB12046BDE81040184710BD46
:10554000C88DFF1FD88DFF1F037870B504460D4628
:10555000164683B18368012B0DD1084602F072FE16
:10556000B04203D03146284602F080FE2046BDE816
:105570007040FFF7D7BF70BD014B1860704700BF88
:10558000CC8DFF1F064B1B6810B5044603B198472E
:10559000044B1B681BB12046BDE81040184710BDE6
:1055A000CC8DFF1FDC8DFF1F2DE9F04FA7B0DDE98B
:1055B0003456CDE90056DDE93656CDE90256DDE92F
:1055C0003856CDE90456DDE93A56CDE90656DDE90F
:1055D0003C56CDE90856DDE93E56CDE90A5640ADC8
:1055E000D5E900560446CDE90C5642ADD5E900890F
:1055F00044ADD5E900672578DDE930ABDDE932015E
:10560000002D3ED0A568012D3BD1CDE90E23DDE96B
:105610000023CDE91423DDE90223CDE91623DDE9DA
:105620000423CDE91823DDE90623CDE91A23DDE9BA
:105630000823CDE91C23DDE90A23CDE91E23DDE99A
:105640000C23CDE910ABCDE91201CDE92023CDE942
:105650002289CDE924670EAB2B44284613F8016C50
:1056600002F0F0FD864203D03146284602F0FEFDEE
:105670000135612DEFD1204627B0BDE8F04FFFF78F
:1056800081BF27B0BDE8F08F08B901238B60704758
:10569000014B1860704700BFE08DFF1F2DE9F047F8
:1056A0001349096888B08246CDE90623DDE9104533
:1056B000DDE91267DDE9148931B1CDE90489CDE96D
:1056C0000267CDE9004588470A4B196861B1DDE9F9
:1056D00006235046CDE91489CDE91267CDE910457E
:1056E00008B0BDE8F047084708B0BDE8F08700BF44
:1056F000E08DFF1F488EFF1F014B1860704700BFF1
:10570000E48DFF1F074B1B6870B504460D4603B1BF
:105710009847054B1B6823B129462046BDE87040D9
:10572000184770BDE48DFF1F4C8EFF1FFFFFFFFF6A
:105730002DE9F04304468DB02578DDE91401DDE95B
:105740001667DDE91889002D29D0194DCDE9000132
:10575000CDE9048906A8CDE9026703F0D1FCD5E9BB
:105760000023CDE90423DDE90A23CDE90223DDE9A5
:1057700008232046CDE90023DDE90623FFF78EFF4D
:1057800009A3D3E90023D5E9000108F057F830B1A7
:10579000002120460DB0BDE8F043FFF7B3BF0DB0C8
:1057A000BDE8F083AFF300809A9999999999C93F20
:1057B0000895FF1F0E4900220023C1E90023C1E91B
:1057C0000223C1E90423C1E90623C1E90823C1E991
:1057D0000A230849C1E90023C1E90223C1E90423DE
:1057E000C1E90623C1E90823C1E90A23704700BFC4
:1057F000E88DFF1F188EFF1F022805D0032808D050
:1058000050B901238B607047044A8989012003F055
:105810004BB8024AC989F9E7704700BF91580000A8
:10582000002804D008DB0238012802D970478868B4
:10583000F6E7012003F064B87047037810B504461A
:1058400063B18068022809D12146FFF7E9FF0320F0
:10585000A0602146BDE81040FFF7CEBF10BDFFFF9E
:10586000014B1860704700BF5C8EFF1F064B1B6822
:1058700010B5044603B19847044B1B681BB1204682
:10588000BDE81040184710BD5C8EFF1F6C8EFF1FD7
:105890000148FFF7EBBF00BF1C89FF1F014B1860D9
:1058A000704700BF508EFF1F064B1B6810B50446A3
:1058B00003B19847044B1B681BB12046BDE810405C
:1058C000184710BD508EFF1F608EFF1F014B1860E0
:1058D000704700BF548EFF1F064B1B6810B504466F
:1058E00003B19847044B1B681BB12046BDE810402C
:1058F000184710BD548EFF1F648EFF1F38B5037804
:105900000446CBB18068012809D12146FFF788FF02
:105910000220A0602146BDE83840FFF76DBF032894
:105920000AD121460125FFF77BFF2046A560FFF73E
:10593000D3FF21462846EEE738BDFFFF014B186034
:10594000704700BF588EFF1F064B1B6810B50446FA
:1059500003B19847044B1B681BB12046BDE81040BB
:10596000184710BD588EFF1F688EFF1F38B503788B
:105970000446DBB1806802280DD121460125FFF7DE
:105980004FFFA5602046FFF7DFFF21462846BDE810
:105990003840FFF731BF032808D121460125FFF722
:1059A0003FFFA5602046FFF77FFFEEE738BDFFFF12
:1059B000D3B51F461A4B1B781646002B2ED019491B
:1059C00019480624FEF780FB32463B4600941648F1
:1059D000FEF7A1FF15491448FEF776FBDDE9062323
:1059E00000941148FEF797FF10490F48FEF76CFB33
:1059F000DDE9082300940C48FEF78DFF0B490A48A7
:105A0000FEF762FBDDE90A2300940748FEF783FFF7
:105A100006490548FEF758FB02B0D0BD0449CFE760
:105A2000B591FF1F7DDC0000D087FF1F32DC000036
:105A300081DC0000D3B51F461A4B1B781646002B9D
:105A40002ED0194919480624FEF73EFB32463B4644
:105A500000941648FEF75FFF15491448FEF734FB23
:105A6000DDE9062300941148FEF755FF10490F4861
:105A7000FEF72AFBDDE9082300940C48FEF74BFFF4
:105A80000B490A48FEF720FBDDE90A23009407488A
:105A9000FEF741FF06490548FEF716FB02B0D0BDF0
:105AA0000449CFE7B591FF1F93DC0000D087FF1FAB
:105AB00032DC000097DC000073B5584C2378002BD3
:105AC00000F0AA8056495748574E0225FEF7FCFAC7
:105AD00056495448FEF7F8FA0095D6E90023514894
